:1000000006C1000016C1000014C1000012C10000AA
:1000100010C100000EC100000CC100000AC10000A8
:1000200008C1000006C1000004C1000002C10000B8
:1000300000C10000FEC00000FCC00000FAC00000CB
:10004000F8C00000F6C00000F4C00000F2C00000DC
:10005000F0C00000EEC00000ECC00000C4C1000011
:10006000E8C00000E6C00000E4C00000E2C00000FC
:10007000E0C00000DEC00000DCC00000DAC000000C
:10008000D8C00000D6C00000D4C00000D2C000001C
:10009000D0C00000CEC00000CCC00000CAC000002C
:1000A000C8C00000C6C00000C4C00000C2C000003C
:1000B000C0C00000BEC00000BCC00000BAC000004C
:1000C000B8C00000B6C00000B4C00000B2C000005C
:1000D000B0C00000AEC00000ACC00000AAC000006C
:1000E000A8C0000048014B013A013E0142018201D3
:1000F0004F01530159015D01610167016B016F01FE
:100100008201750179017D0100000A0B02090C0DC5
:100110000E080703040100000000000000000000BA
:1001200000000000000000000000000000000000CF
:10013000000000001211100000000000000000008C
:1001400000000000000000000000000000000000AF
:100150002200250028002B002E003100340002016F
:100160000000050108010B01000021002400270008
:100170002A002D00300033000101000004010701B6
:100180000A0105050505070508080808020202021C
:100190000A0A080804040404010101010101010123
:1001A0000303030303030303040707070C0C0C0CEE
:1001B0000C0C0C0C020202020606060606060606D7
:1001C0000B0B0B0B0B0B0B0B010210202008081064
:1001D00020401020408002010201080402010102B7
:1001E0000408102040808040201008040201800490
:1001F00002018040201008040201080402010102EB
:1002000004081020408001020408102040801124BE
:100210001FBECFEFD1E2DEBFCDBF00E00CBF22E0BA
:10022000A0E0B2E001C01D92A930B207E1F725D1EC
:10023000CEC1E6CE362F90E0FC01E85FFE4F449140
:10024000FC01E853FE4F2491FC01EE57FE4F9491C0
:10025000992309F46AC0442309F454C050E0FA0118
:100260003197E231F10508F04DC08827EE58FF4F75
:100270008F4FA5C1809180008F7707C0809180004B
:100280008F7D03C080918000877F809380003AC07B
:1002900084B58F7702C084B58F7D84BD33C08091D3
:1002A000B0008F7703C08091B0008F7D8093B00045
:1002B00029C0809190008F7707C0809190008F7D3A
:1002C00003C080919000877F809390001BC0809135
:1002D000A0008F7707C08091A0008F7D03C0809120
:1002E000A000877F8093A0000DC0809120018F77B0
:1002F00007C0809120018F7D03C080912001877FFE
:1003000080932001E92FF0E0EE0FFF1FE25BFE4F2C
:10031000A591B4918FB7F894EC91311103C0209559
:100320002E2301C02E2B2C938FBF08953FB7F89436
:100330008091050290910602A0910702B0910802F7
:1003400026B5A89B05C02F3F19F00196A11DB11D30
:100350003FBFBA2FA92F982F8827820F911DA11D6B
:10036000B11DBC01CD0142E0660F771F881F991FA8
:100370004A95D1F708958F929F92AF92BF92CF92F4
:10038000DF92EF92FF926B017C01D0DF4B015C01A9
:10039000C114D104E104F104E9F0C8DFDC01CB01B0
:1003A00088199909AA09BB09883E9340A105B1059E
:1003B00078F321E0C21AD108E108F10888EE880E2E
:1003C00083E0981EA11CB11CC114D104E104F10406
:1003D00021F7DECFFF90EF90DF90CF90BF90AF90EE
:1003E0009F908F9008951F920F920FB60F92112435
:1003F0002F933F938F939F93AF93BF93809101026D
:1004000090910202A0910302B09104023091000287
:1004100023E0230F2D3720F40196A11DB11D05C047
:1004200026E8230F0296A11DB11D209300028093A0
:10043000010290930202A0930302B0930402809100
:10044000050290910602A0910702B0910802019660
:10045000A11DB11D8093050290930602A09307028F
:10046000B0930802BF91AF919F918F913F912F91CF
:100470000F900FBE0F901F901895789484B58260EE
:1004800084BD84B5816084BD85B5826085BD85B538
:10049000816085BD80916E00816080936E001092B6
:1004A0008100809181008260809381008091810031
:1004B00081608093810080918000816080938000C2
:1004C0008091B10084608093B1008091B000816020
:1004D0008093B00080919100826080939100809120
:1004E0009100816080939100809190008160809361
:1004F00090008091A10082608093A1008091A10072
:1005000081608093A1008091A00081608093A00011
:10051000809121018260809321018091210181607D
:10052000809321018091200181608093200180913E
:100530007A00846080937A0080917A008260809350
:100540007A0080917A00816080937A0080917A00AD
:10055000806880937A001092C100E4EDF1E024916C
:10056000EEE8F1E08491882399F090E0880F991FDC
:10057000FC01E859FE4FA591B491FC01E25BFE4FEE
:10058000859194918FB7F894EC91E22BEC938FBF07
:10059000C0E0D0E061E08CE04DDE62E370E080E03E
:1005A00090E0E9DE60E08CE045DE62E370E080E050
:1005B00090E0E1DE209771F30E940000EBCFEE0F98
:1005C000FF1F881F8BBF0790F691E02D1994F894B8
:0205D000FFCF5B
:00000001FF
